{
  "_format": "hh-sol-artifact-1",
  "contractName": "Marketplace",
  "sourceName": "contracts/Marketplace.sol",
  "abi": [
    {
      "inputs": [
        {
          "internalType": "address",
          "name": "_nftContract",
          "type": "address"
        }
      ],
      "stateMutability": "nonpayable",
      "type": "constructor"
    },
    {
      "anonymous": false,
      "inputs": [
        {
          "indexed": true,
          "internalType": "bytes32",
          "name": "orderHash",
          "type": "bytes32"
        },
        {
          "indexed": false,
          "internalType": "address",
          "name": "bidder",
          "type": "address"
        },
        {
          "indexed": false,
          "internalType": "uint256",
          "name": "price",
          "type": "uint256"
        }
      ],
      "name": "ArtworkBid",
      "type": "event"
    },
    {
      "anonymous": false,
      "inputs": [
        {
          "indexed": true,
          "internalType": "bytes32",
          "name": "orderHash",
          "type": "bytes32"
        },
        {
          "indexed": false,
          "internalType": "address",
          "name": "claimer",
          "type": "address"
        }
      ],
      "name": "ArtworkClaim",
      "type": "event"
    },
    {
      "anonymous": false,
      "inputs": [
        {
          "indexed": true,
          "internalType": "bytes32",
          "name": "orderHash",
          "type": "bytes32"
        },
        {
          "indexed": false,
          "internalType": "address",
          "name": "owner",
          "type": "address"
        },
        {
          "indexed": false,
          "internalType": "uint256",
          "name": "tokenId",
          "type": "uint256"
        },
        {
          "indexed": false,
          "internalType": "uint256",
          "name": "reservePrice",
          "type": "uint256"
        },
        {
          "indexed": false,
          "internalType": "uint256",
          "name": "stepPrice",
          "type": "uint256"
        },
        {
          "indexed": false,
          "internalType": "uint256",
          "name": "aunctionStart",
          "type": "uint256"
        },
        {
          "indexed": false,
          "internalType": "uint256",
          "name": "aunctionDuration",
          "type": "uint256"
        }
      ],
      "name": "ArtworkList",
      "type": "event"
    },
    {
      "anonymous": false,
      "inputs": [
        {
          "indexed": false,
          "internalType": "address",
          "name": "owner",
          "type": "address"
        },
        {
          "indexed": true,
          "internalType": "uint256",
          "name": "tokenId",
          "type": "uint256"
        },
        {
          "indexed": false,
          "internalType": "string",
          "name": "tokenURI",
          "type": "string"
        }
      ],
      "name": "ArtworkMint",
      "type": "event"
    },
    {
      "anonymous": false,
      "inputs": [
        {
          "indexed": true,
          "internalType": "bytes32",
          "name": "orderHash",
          "type": "bytes32"
        }
      ],
      "name": "ArtworkWithdraw",
      "type": "event"
    },
    {
      "inputs": [
        {
          "internalType": "bytes32",
          "name": "_orderHash",
          "type": "bytes32"
        },
        {
          "internalType": "uint256",
          "name": "_price",
          "type": "uint256"
        }
      ],
      "name": "bid",
      "outputs": [],
      "stateMutability": "nonpayable",
      "type": "function"
    },
    {
      "inputs": [
        {
          "internalType": "uint256",
          "name": "_tokenId",
          "type": "uint256"
        },
        {
          "internalType": "bytes32",
          "name": "_orderHash",
          "type": "bytes32"
        }
      ],
      "name": "claim",
      "outputs": [],
      "stateMutability": "payable",
      "type": "function"
    },
    {
      "inputs": [
        {
          "internalType": "bytes32",
          "name": "_orderHash",
          "type": "bytes32"
        }
      ],
      "name": "getCurrentBid",
      "outputs": [
        {
          "internalType": "uint256",
          "name": "",
          "type": "uint256"
        }
      ],
      "stateMutability": "view",
      "type": "function"
    },
    {
      "inputs": [
        {
          "internalType": "uint256",
          "name": "_tokenId",
          "type": "uint256"
        },
        {
          "internalType": "uint256",
          "name": "_reservePrice",
          "type": "uint256"
        },
        {
          "internalType": "uint256",
          "name": "_stepPrice",
          "type": "uint256"
        },
        {
          "internalType": "uint256",
          "name": "_aunctionDuration",
          "type": "uint256"
        }
      ],
      "name": "list",
      "outputs": [],
      "stateMutability": "nonpayable",
      "type": "function"
    },
    {
      "inputs": [
        {
          "internalType": "string",
          "name": "_tokenURI",
          "type": "string"
        }
      ],
      "name": "mint",
      "outputs": [
        {
          "internalType": "uint256",
          "name": "",
          "type": "uint256"
        }
      ],
      "stateMutability": "nonpayable",
      "type": "function"
    },
    {
      "inputs": [
        {
          "internalType": "bytes32",
          "name": "_orderHash",
          "type": "bytes32"
        }
      ],
      "name": "withdraw",
      "outputs": [],
      "stateMutability": "nonpayable",
      "type": "function"
    }
  ],
  "bytecode": "0x6080604052600080553480156200001557600080fd5b50604051620022bd380380620022bd83398181016040528101906200003b9190620000ed565b80600160006101000a81548173ffffffffffffffffffffffffffffffffffffffff021916908373ffffffffffffffffffffffffffffffffffffffff160217905550506200011f565b600080fd5b600073ffffffffffffffffffffffffffffffffffffffff82169050919050565b6000620000b58262000088565b9050919050565b620000c781620000a8565b8114620000d357600080fd5b50565b600081519050620000e781620000bc565b92915050565b60006020828403121562000106576200010562000083565b5b60006200011684828501620000d6565b91505092915050565b61218e806200012f6000396000f3fe6080604052600436106100555760003560e01c806331d144571461005a5780633766e5c7146100765780637961b9761461009f5780638e19899e146100dc578063cd772f5c14610105578063d85d3d271461012e575b600080fd5b610074600480360381019061006f919061112e565b61016b565b005b34801561008257600080fd5b5061009d6004803603810190610098919061116e565b6104eb565b005b3480156100ab57600080fd5b506100c660048036038101906100c191906111d5565b610a58565b6040516100d39190611211565b60405180910390f35b3480156100e857600080fd5b5061010360048036038101906100fe91906111d5565b610a78565b005b34801561011157600080fd5b5061012c6004803603810190610127919061122c565b610cb3565b005b34801561013a57600080fd5b50610155600480360381019061015091906113b2565b610fc6565b6040516101629190611211565b60405180910390f35b60006002600083815260200190815260200160002090506000600360008481526020019081526020016000206040518060400160405290816000820160009054906101000a900473ffffffffffffffffffffffffffffffffffffffff1673ffffffffffffffffffffffffffffffffffffffff1673ffffffffffffffffffffffffffffffffffffffff16815260200160018201548152505090504282600501548360040154610219919061142a565b10610259576040517f08c379a0000000000000000000000000000000000000000000000000000000008152600401610250906114e1565b60405180910390fd5b3373ffffffffffffffffffffffffffffffffffffffff16816000015173ffffffffffffffffffffffffffffffffffffffff16146102cb576040517f08c379a00000000000000000000000000000000000000000000000000000000081526004016102c290611573565b60405180910390fd5b8060200151341015610312576040517f08c379a000000000000000000000000000000000000000000000000000000000815260040161030990611605565b60405180910390fd5b600160009054906101000a900473ffffffffffffffffffffffffffffffffffffffff1673ffffffffffffffffffffffffffffffffffffffff1663b88d4fde8360000160009054906101000a900473ffffffffffffffffffffffffffffffffffffffff163385600101546040518463ffffffff1660e01b8152600401610399939291906116c3565b600060405180830381600087803b1580156103b357600080fd5b505af11580156103c7573d6000803e3d6000fd5b5050505060008260000160009054906101000a900473ffffffffffffffffffffffffffffffffffffffff1673ffffffffffffffffffffffffffffffffffffffff16346040516104159061173e565b60006040518083038185875af1925050503d8060008114610452576040519150601f19603f3d011682016040523d82523d6000602084013e610457565b606091505b505090508061049b576040517f08c379a0000000000000000000000000000000000000000000000000000000008152600401610492906117c5565b60405180910390fd5b60008360060160006101000a81548160ff02191690831515021790555060006004600087815260200190815260200160002060006101000a81548160ff0219169083151502179055505050505050565b6000831161052e576040517f08c379a000000000000000000000000000000000000000000000000000000000815260040161052590611857565b60405180910390fd5b60008211610571576040517f08c379a0000000000000000000000000000000000000000000000000000000008152600401610568906118e9565b60405180910390fd5b600081116105b4576040517f08c379a00000000000000000000000000000000000000000000000000000000081526004016105ab9061197b565b60405180910390fd5b6004600085815260200190815260200160002060009054906101000a900460ff1615610615576040517f08c379a000000000000000000000000000000000000000000000000000000000815260040161060c90611a0d565b60405180910390fd5b3373ffffffffffffffffffffffffffffffffffffffff16600160009054906101000a900473ffffffffffffffffffffffffffffffffffffffff1673ffffffffffffffffffffffffffffffffffffffff16636352211e866040518263ffffffff1660e01b81526004016106879190611211565b602060405180830381865afa1580156106a4573d6000803e3d6000fd5b505050506040513d601f19601f820116820180604052508101906106c89190611a59565b73ffffffffffffffffffffffffffffffffffffffff161461071e576040517f08c379a000000000000000000000000000000000000000000000000000000000815260040161071590611af8565b60405180910390fd5b3073ffffffffffffffffffffffffffffffffffffffff16600160009054906101000a900473ffffffffffffffffffffffffffffffffffffffff1673ffffffffffffffffffffffffffffffffffffffff1663081812fc866040518263ffffffff1660e01b81526004016107909190611211565b602060405180830381865afa1580156107ad573d6000803e3d6000fd5b505050506040513d601f19601f820116820180604052508101906107d19190611a59565b73ffffffffffffffffffffffffffffffffffffffff1614610827576040517f08c379a000000000000000000000000000000000000000000000000000000000815260040161081e90611bb0565b60405180910390fd5b600033854260405160200161083e93929190611bd0565b6040516020818303038152906040528051906020012090506040518060e001604052803373ffffffffffffffffffffffffffffffffffffffff16815260200186815260200185815260200184815260200160008152602001838152602001600115158152506002600083815260200190815260200160002060008201518160000160006101000a81548173ffffffffffffffffffffffffffffffffffffffff021916908373ffffffffffffffffffffffffffffffffffffffff1602179055506020820151816001015560408201518160020155606082015181600301556080820151816004015560a0820151816005015560c08201518160060160006101000a81548160ff021916908315150217905550905050600160009054906101000a900473ffffffffffffffffffffffffffffffffffffffff1673ffffffffffffffffffffffffffffffffffffffff1663b88d4fde3330886040518463ffffffff1660e01b81526004016109b193929190611c2a565b600060405180830381600087803b1580156109cb57600080fd5b505af11580156109df573d6000803e3d6000fd5b5050505060016004600087815260200190815260200160002060006101000a81548160ff021916908315150217905550807ff91638881e97659e29857c6bcedf2a7242acaaf91e63ba81d5cac2cd8561a21f338787874288604051610a4996959493929190611c74565b60405180910390a25050505050565b600060036000838152602001908152602001600020600101549050919050565b6000600260008381526020019081526020016000209050600081600501548260040154610aa5919061142a565b90503373ffffffffffffffffffffffffffffffffffffffff168260000160009054906101000a900473ffffffffffffffffffffffffffffffffffffffff1673ffffffffffffffffffffffffffffffffffffffff1614610b39576040517f08c379a0000000000000000000000000000000000000000000000000000000008152600401610b3090611d21565b60405180910390fd5b600082600401541480610b6057506203f48063ffffffff168142610b5d9190611d41565b10155b610b9f576040517f08c379a0000000000000000000000000000000000000000000000000000000008152600401610b9690611de7565b60405180910390fd5b600160009054906101000a900473ffffffffffffffffffffffffffffffffffffffff1673ffffffffffffffffffffffffffffffffffffffff1663b88d4fde303385600101546040518463ffffffff1660e01b8152600401610c0293929190611c2a565b600060405180830381600087803b158015610c1c57600080fd5b505af1158015610c30573d6000803e3d6000fd5b5050505060008260060160006101000a81548160ff0219169083151502179055506000600460008460010154815260200190815260200160002060006101000a81548160ff021916908315150217905550827fd0eb3b81efb328f24ee1a2b2b72e283e8a96d3a34655bd599a6e52ca2abd480c60405160405180910390a2505050565b60006002600084815260200190815260200160002090506000600360008581526020019081526020016000206040518060400160405290816000820160009054906101000a900473ffffffffffffffffffffffffffffffffffffffff1673ffffffffffffffffffffffffffffffffffffffff1673ffffffffffffffffffffffffffffffffffffffff16815260200160018201548152505090508160060160009054906101000a900460ff16610d9d576040517f08c379a0000000000000000000000000000000000000000000000000000000008152600401610d9490611e79565b60405180910390fd5b8160000160009054906101000a900473ffffffffffffffffffffffffffffffffffffffff1673ffffffffffffffffffffffffffffffffffffffff163373ffffffffffffffffffffffffffffffffffffffff1603610e2f576040517f08c379a0000000000000000000000000000000000000000000000000000000008152600401610e2690611f0b565b60405180910390fd5b81600301548160200151610e43919061142a565b8311610e84576040517f08c379a0000000000000000000000000000000000000000000000000000000008152600401610e7b90611fc3565b60405180910390fd5b6000826004015403610e9e57428260040181905550610ef4565b81600501548260040154610eb2919061142a565b4210610ef3576040517f08c379a0000000000000000000000000000000000000000000000000000000008152600401610eea9061202f565b60405180910390fd5b5b60405180604001604052803373ffffffffffffffffffffffffffffffffffffffff168152602001848152506003600086815260200190815260200160002060008201518160000160006101000a81548173ffffffffffffffffffffffffffffffffffffffff021916908373ffffffffffffffffffffffffffffffffffffffff16021790555060208201518160010155905050837fc6d429605b9b059acb515273a7a60750b42218e5002eea585d3856ef24ed67d63385604051610fb892919061204f565b60405180910390a250505050565b600080600160009054906101000a900473ffffffffffffffffffffffffffffffffffffffff1673ffffffffffffffffffffffffffffffffffffffff1663d0def52133856040518363ffffffff1660e01b81526004016110269291906120e6565b6020604051808303816000875af1158015611045573d6000803e3d6000fd5b505050506040513d601f19601f82011682018060405250810190611069919061212b565b9050807f3dcc2dfb1a0b645fb466350ba2f5ca76b51b2414dd64655989bdf94ba44b83a1338560405161109d9291906120e6565b60405180910390a280915050919050565b6000604051905090565b600080fd5b600080fd5b6000819050919050565b6110d5816110c2565b81146110e057600080fd5b50565b6000813590506110f2816110cc565b92915050565b6000819050919050565b61110b816110f8565b811461111657600080fd5b50565b60008135905061112881611102565b92915050565b60008060408385031215611145576111446110b8565b5b6000611153858286016110e3565b925050602061116485828601611119565b9150509250929050565b60008060008060808587031215611188576111876110b8565b5b6000611196878288016110e3565b94505060206111a7878288016110e3565b93505060406111b8878288016110e3565b92505060606111c9878288016110e3565b91505092959194509250565b6000602082840312156111eb576111ea6110b8565b5b60006111f984828501611119565b91505092915050565b61120b816110c2565b82525050565b60006020820190506112266000830184611202565b92915050565b60008060408385031215611243576112426110b8565b5b600061125185828601611119565b9250506020611262858286016110e3565b9150509250929050565b600080fd5b600080fd5b6000601f19601f8301169050919050565b7f4e487b7100000000000000000000000000000000000000000000000000000000600052604160045260246000fd5b6112bf82611276565b810181811067ffffffffffffffff821117156112de576112dd611287565b5b80604052505050565b60006112f16110ae565b90506112fd82826112b6565b919050565b600067ffffffffffffffff82111561131d5761131c611287565b5b61132682611276565b9050602081019050919050565b82818337600083830152505050565b600061135561135084611302565b6112e7565b90508281526020810184848401111561137157611370611271565b5b61137c848285611333565b509392505050565b600082601f8301126113995761139861126c565b5b81356113a9848260208601611342565b91505092915050565b6000602082840312156113c8576113c76110b8565b5b600082013567ffffffffffffffff8111156113e6576113e56110bd565b5b6113f284828501611384565b91505092915050565b7f4e487b7100000000000000000000000000000000000000000000000000000000600052601160045260246000fd5b6000611435826110c2565b9150611440836110c2565b9250828201905080821115611458576114576113fb565b5b92915050565b600082825260208201905092915050565b7f4d61726b6574706c6163653a2041756e6374696f6e20686173206e6f7420656e60008201527f6465640000000000000000000000000000000000000000000000000000000000602082015250565b60006114cb60238361145e565b91506114d68261146f565b604082019050919050565b600060208201905081810360008301526114fa816114be565b9050919050565b7f4d61726b6574706c6163653a20596f75206469646e27742077696e207468652060008201527f61756e6374696f6e000000000000000000000000000000000000000000000000602082015250565b600061155d60288361145e565b915061156882611501565b604082019050919050565b6000602082019050818103600083015261158c81611550565b9050919050565b7f4d61726b6574706c6163653a20496e73756666696369656e742062616c616e6360008201527f6500000000000000000000000000000000000000000000000000000000000000602082015250565b60006115ef60218361145e565b91506115fa82611593565b604082019050919050565b6000602082019050818103600083015261161e816115e2565b9050919050565b600073ffffffffffffffffffffffffffffffffffffffff82169050919050565b600061165082611625565b9050919050565b61166081611645565b82525050565b600082825260208201905092915050565b7f3078000000000000000000000000000000000000000000000000000000000000600082015250565b60006116ad600283611666565b91506116b882611677565b602082019050919050565b60006080820190506116d86000830186611657565b6116e56020830185611657565b6116f26040830184611202565b8181036060830152611703816116a0565b9050949350505050565b600081905092915050565b50565b600061172860008361170d565b915061173382611718565b600082019050919050565b60006117498261171b565b9150819050919050565b7f4d61726b6574706c6163653a204661696c656420746f207472616e736665722060008201527f6d6f6e6579000000000000000000000000000000000000000000000000000000602082015250565b60006117af60258361145e565b91506117ba82611753565b604082019050919050565b600060208201905081810360008301526117de816117a2565b9050919050565b7f4d61726b6574706c6163653a2052657365727665207072696365206d7573742060008201527f626520686967686572207468616e203000000000000000000000000000000000602082015250565b600061184160308361145e565b915061184c826117e5565b604082019050919050565b6000602082019050818103600083015261187081611834565b9050919050565b7f4d61726b6574706c6163653a2053746570207072696365206d7573742062652060008201527f686967686572207468616e203000000000000000000000000000000000000000602082015250565b60006118d3602d8361145e565b91506118de82611877565b604082019050919050565b60006020820190508181036000830152611902816118c6565b9050919050565b7f4d61726b6574706c6163653a2041756e6374696f6e206475726174696f6e206d60008201527f75737420626520686967686572207468616e2030000000000000000000000000602082015250565b600061196560348361145e565b915061197082611909565b604082019050919050565b6000602082019050818103600083015261199481611958565b9050919050565b7f4d61726b6574706c6163653a204e6674206d75737420626520756e6c6973746560008201527f6400000000000000000000000000000000000000000000000000000000000000602082015250565b60006119f760218361145e565b9150611a028261199b565b604082019050919050565b60006020820190508181036000830152611a26816119ea565b9050919050565b611a3681611645565b8114611a4157600080fd5b50565b600081519050611a5381611a2d565b92915050565b600060208284031215611a6f57611a6e6110b8565b5b6000611a7d84828501611a44565b91505092915050565b7f4d61726b6574706c6163653a20596f75206d757374206f776e20746865206e6660008201527f7400000000000000000000000000000000000000000000000000000000000000602082015250565b6000611ae260218361145e565b9150611aed82611a86565b604082019050919050565b60006020820190508181036000830152611b1181611ad5565b9050919050565b7f4d61726b6574706c6163653a20596f75206d75737420617070726f766520746860008201527f65206d61726b6574706c61636520746f207472616e7366657220746865206e6660208201527f7400000000000000000000000000000000000000000000000000000000000000604082015250565b6000611b9a60418361145e565b9150611ba582611b18565b606082019050919050565b60006020820190508181036000830152611bc981611b8d565b9050919050565b6000606082019050611be56000830186611657565b611bf26020830185611202565b611bff6040830184611202565b949350505050565b6000611c14600083611666565b9150611c1f82611718565b600082019050919050565b6000608082019050611c3f6000830186611657565b611c4c6020830185611657565b611c596040830184611202565b8181036060830152611c6a81611c07565b9050949350505050565b600060c082019050611c896000830189611657565b611c966020830188611202565b611ca36040830187611202565b611cb06060830186611202565b611cbd6080830185611202565b611cca60a0830184611202565b979650505050505050565b7f4d61726b6574706c6163653a20496e76616c6964206f776e6572000000000000600082015250565b6000611d0b601a8361145e565b9150611d1682611cd5565b602082019050919050565b60006020820190508181036000830152611d3a81611cfe565b9050919050565b6000611d4c826110c2565b9150611d57836110c2565b9250828203905081811115611d6f57611d6e6113fb565b5b92915050565b7f4d61726b6574706c6163653a20496e76616c696420776974686472617720706560008201527f72696f6400000000000000000000000000000000000000000000000000000000602082015250565b6000611dd160248361145e565b9150611ddc82611d75565b604082019050919050565b60006020820190508181036000830152611e0081611dc4565b9050919050565b7f4d61726b6574706c6163653a204f72646572206973206e6f742065786973746560008201527f6400000000000000000000000000000000000000000000000000000000000000602082015250565b6000611e6360218361145e565b9150611e6e82611e07565b604082019050919050565b60006020820190508181036000830152611e9281611e56565b9050919050565b7f4d61726b6574706c6163653a204e66742773206f776e65722063616e6e6f742060008201527f6d616b6520612062696400000000000000000000000000000000000000000000602082015250565b6000611ef5602a8361145e565b9150611f0082611e99565b604082019050919050565b60006020820190508181036000830152611f2481611ee8565b9050919050565b7f4d61726b6574706c6163653a20426964207072696365206d757374206265206860008201527f6967686572207468616e2063757272656e742062696420706c7573207374657060208201527f2070726963650000000000000000000000000000000000000000000000000000604082015250565b6000611fad60468361145e565b9150611fb882611f2b565b606082019050919050565b60006020820190508181036000830152611fdc81611fa0565b9050919050565b7f4d61726b6574706c6163653a2041756e6374696f6e20697320656e6465640000600082015250565b6000612019601e8361145e565b915061202482611fe3565b602082019050919050565b600060208201905081810360008301526120488161200c565b9050919050565b60006040820190506120646000830185611657565b6120716020830184611202565b9392505050565b600081519050919050565b60005b838110156120a1578082015181840152602081019050612086565b60008484015250505050565b60006120b882612078565b6120c2818561145e565b93506120d2818560208601612083565b6120db81611276565b840191505092915050565b60006040820190506120fb6000830185611657565b818103602083015261210d81846120ad565b90509392505050565b600081519050612125816110cc565b92915050565b600060208284031215612141576121406110b8565b5b600061214f84828501612116565b9150509291505056fea2646970667358221220ad25a90fc4b9d244dafdfd7e3b36eba7373ad1c0e62733d23698b5c40a270dba64736f6c63430008180033",
  "linkReferences": {},
  "deployedLinkReferences": {}
}